{
  "contractName": "FiDispute",
  "abi": [
    {
      "inputs": [
        {
          "internalType": "address",
          "name": "_fiDiManager",
          "type": "address"
        },
        {
          "internalType": "contract FiDiToken",
          "name": "_fiDiToken",
          "type": "address"
        },
        {
          "internalType": "address",
          "name": "_initiatorParty",
          "type": "address"
        },
        {
          "internalType": "bytes32",
          "name": "_disputeDescriptionHash",
          "type": "bytes32"
        },
        {
          "internalType": "uint256",
          "name": "initiatorStake",
          "type": "uint256"
        }
      ],
      "stateMutability": "nonpayable",
      "type": "constructor"
    },
    {
      "anonymous": false,
      "inputs": [
        {
          "indexed": false,
          "internalType": "address",
          "name": "judge",
          "type": "address"
        }
      ],
      "name": "ChosenJudge",
      "type": "event"
    },
    {
      "anonymous": false,
      "inputs": [
        {
          "indexed": false,
          "internalType": "address",
          "name": "judge",
          "type": "address"
        }
      ],
      "name": "JudgeApproval",
      "type": "event"
    },
    {
      "anonymous": false,
      "inputs": [
        {
          "indexed": false,
          "internalType": "address",
          "name": "winner",
          "type": "address"
        }
      ],
      "name": "Winner",
      "type": "event"
    },
    {
      "inputs": [
        {
          "internalType": "address",
          "name": "challenger",
          "type": "address"
        },
        {
          "internalType": "uint256",
          "name": "challengerStake",
          "type": "uint256"
        }
      ],
      "name": "acceptDispute",
      "outputs": [],
      "stateMutability": "nonpayable",
      "type": "function"
    },
    {
      "inputs": [
        {
          "internalType": "address",
          "name": "_judge",
          "type": "address"
        }
      ],
      "name": "offerJudge",
      "outputs": [],
      "stateMutability": "payable",
      "type": "function"
    },
    {
      "inputs": [
        {
          "internalType": "address",
          "name": "_judge",
          "type": "address"
        }
      ],
      "name": "assignJudge",
      "outputs": [],
      "stateMutability": "nonpayable",
      "type": "function"
    },
    {
      "inputs": [
        {
          "internalType": "address",
          "name": "winner",
          "type": "address"
        }
      ],
      "name": "chooseWinner",
      "outputs": [],
      "stateMutability": "nonpayable",
      "type": "function"
    },
    {
      "inputs": [],
      "name": "participationStakeValue",
      "outputs": [
        {
          "internalType": "uint256",
          "name": "",
          "type": "uint256"
        }
      ],
      "stateMutability": "view",
      "type": "function"
    },
    {
      "inputs": [],
      "name": "depositValue",
      "outputs": [
        {
          "internalType": "uint256",
          "name": "",
          "type": "uint256"
        }
      ],
      "stateMutability": "view",
      "type": "function"
    },
    {
      "inputs": [],
      "name": "partiesCount",
      "outputs": [
        {
          "internalType": "uint256",
          "name": "",
          "type": "uint256"
        }
      ],
      "stateMutability": "view",
      "type": "function"
    },
    {
      "inputs": [
        {
          "internalType": "address",
          "name": "candidate",
          "type": "address"
        }
      ],
      "name": "isParty",
      "outputs": [
        {
          "internalType": "bool",
          "name": "",
          "type": "bool"
        }
      ],
      "stateMutability": "view",
      "type": "function"
    }
  ],
  "bytecode": "0x60806040526000600560146101000a81548160ff0219169083151502179055506000600560156101000a81548160ff0219169083151502179055503480156200004757600080fd5b50604051620015f2380380620015f283398181016040528101906200006d9190620002aa565b84600160006101000a81548173ffffffffffffffffffffffffffffffffffffffff021916908373ffffffffffffffffffffffffffffffffffffffff160217905550836000806101000a81548173ffffffffffffffffffffffffffffffffffffffff021916908373ffffffffffffffffffffffffffffffffffffffff1602179055506002839080600181540180825580915050600190039060005260206000200160009091909190916101000a81548173ffffffffffffffffffffffffffffffffffffffff021916908373ffffffffffffffffffffffffffffffffffffffff1602179055508160078190555080600381905550806004600082825462000173919062000361565b925050819055505050505050620003be565b600080fd5b600073ffffffffffffffffffffffffffffffffffffffff82169050919050565b6000620001b7826200018a565b9050919050565b620001c981620001aa565b8114620001d557600080fd5b50565b600081519050620001e981620001be565b92915050565b6000620001fc82620001aa565b9050919050565b6200020e81620001ef565b81146200021a57600080fd5b50565b6000815190506200022e8162000203565b92915050565b6000819050919050565b620002498162000234565b81146200025557600080fd5b50565b60008151905062000269816200023e565b92915050565b6000819050919050565b62000284816200026f565b81146200029057600080fd5b50565b600081519050620002a48162000279565b92915050565b600080600080600060a08688031215620002c957620002c862000185565b5b6000620002d988828901620001d8565b9550506020620002ec888289016200021d565b9450506040620002ff88828901620001d8565b9350506060620003128882890162000258565b9250506080620003258882890162000293565b9150509295509295909350565b7f4e487b7100000000000000000000000000000000000000000000000000000000600052601160045260246000fd5b60006200036e826200026f565b91506200037b836200026f565b9250827fffffffffffffffffffffffffffffffffffffffffffffffffffffffffffffffff03821115620003b357620003b262000332565b5b828201905092915050565b61122480620003ce6000396000f3fe60806040526004361061007b5760003560e01c8063b7bbd5671161004e578063b7bbd56714610119578063c56a354014610144578063ca04ddcb1461016f578063fc78b2e8146101985761007b565b80633c7bb9131461008057806363d5f85a146100a957806387764e7c146100d2578063987a0e62146100fd575b600080fd5b34801561008c57600080fd5b506100a760048036038101906100a29190610b13565b6101d5565b005b3480156100b557600080fd5b506100d060048036038101906100cb9190610b76565b61044b565b005b3480156100de57600080fd5b506100e7610562565b6040516100f49190610bc5565b60405180910390f35b61011760048036038101906101129190610b13565b61056c565b005b34801561012557600080fd5b5061012e610640565b60405161013b9190610bc5565b60405180910390f35b34801561015057600080fd5b5061015961064a565b6040516101669190610bc5565b60405180910390f35b34801561017b57600080fd5b5061019660048036038101906101919190610b13565b610657565b005b3480156101a457600080fd5b506101bf60048036038101906101ba9190610b13565b6109f9565b6040516101cc9190610bfb565b60405180910390f35b806101df816109f9565b61021e576040517f08c379a000000000000000000000000000000000000000000000000000000000815260040161021590610c73565b60405180910390fd5b600560149054906101000a900460ff1661026d576040517f08c379a000000000000000000000000000000000000000000000000000000000815260040161026490610cdf565b60405180910390fd5b600560009054906101000a900473ffffffffffffffffffffffffffffffffffffffff1673ffffffffffffffffffffffffffffffffffffffff166102ae610aa8565b73ffffffffffffffffffffffffffffffffffffffff1614610304576040517f08c379a00000000000000000000000000000000000000000000000000000000081526004016102fb90610d71565b60405180910390fd5b600560159054906101000a900460ff1615610354576040517f08c379a000000000000000000000000000000000000000000000000000000000815260040161034b90610ddd565b60405180910390fd5b6001600560156101000a81548160ff0219169083151502179055507f745c90b656b4aafe296c8ca35aeacfe56cb96c90e1d320e5da643fff1051b6c08260405161039e9190610e0c565b60405180910390a160008054906101000a900473ffffffffffffffffffffffffffffffffffffffff1673ffffffffffffffffffffffffffffffffffffffff1663a9059cbb836004546040518363ffffffff1660e01b8152600401610403929190610e27565b6020604051808303816000875af1158015610422573d6000803e3d6000fd5b505050506040513d601f19601f820116820180604052508101906104469190610e7c565b505050565b600160009054906101000a900473ffffffffffffffffffffffffffffffffffffffff1673ffffffffffffffffffffffffffffffffffffffff1661048c610aa8565b73ffffffffffffffffffffffffffffffffffffffff16146104e2576040517f08c379a00000000000000000000000000000000000000000000000000000000081526004016104d990610f1b565b60405180910390fd5b6002829080600181540180825580915050600190039060005260206000200160009091909190916101000a81548173ffffffffffffffffffffffffffffffffffffffff021916908373ffffffffffffffffffffffffffffffffffffffff16021790555080600460008282546105579190610f6a565b925050819055505050565b6000600354905090565b610574610aa8565b61057d816109f9565b6105bc576040517f08c379a00000000000000000000000000000000000000000000000000000000081526004016105b390610c73565b60405180910390fd5b6105c5826109f9565b15610605576040517f08c379a00000000000000000000000000000000000000000000000000000000081526004016105fc90611032565b60405180910390fd5b7f8b1adbd3bf7169485d149afca4209f89513cb267f6964ab3a0a093af705fd148826040516106349190610e0c565b60405180910390a15050565b6000600454905090565b6000600280549050905090565b61065f610aa8565b610668816109f9565b6106a7576040517f08c379a000000000000000000000000000000000000000000000000000000000815260040161069e90610c73565b60405180910390fd5b600560149054906101000a900460ff16156106f7576040517f08c379a00000000000000000000000000000000000000000000000000000000081526004016106ee906110c4565b60405180910390fd5b60005b600660008473ffffffffffffffffffffffffffffffffffffffff1673ffffffffffffffffffffffffffffffffffffffff1681526020019081526020016000208054905081101561084857600660008473ffffffffffffffffffffffffffffffffffffffff1673ffffffffffffffffffffffffffffffffffffffff1681526020019081526020016000208181548110610795576107946110e4565b5b9060005260206000200160009054906101000a900473ffffffffffffffffffffffffffffffffffffffff1673ffffffffffffffffffffffffffffffffffffffff166107de610aa8565b73ffffffffffffffffffffffffffffffffffffffff161415610835576040517f08c379a000000000000000000000000000000000000000000000000000000000815260040161082c90611185565b60405180910390fd5b8080610840906111a5565b9150506106fa565b50600660008373ffffffffffffffffffffffffffffffffffffffff1673ffffffffffffffffffffffffffffffffffffffff168152602001908152602001600020610890610aa8565b9080600181540180825580915050600190039060005260206000200160009091909190916101000a81548173ffffffffffffffffffffffffffffffffffffffff021916908373ffffffffffffffffffffffffffffffffffffffff160217905550600280549050600660008473ffffffffffffffffffffffffffffffffffffffff1673ffffffffffffffffffffffffffffffffffffffff1681526020019081526020016000208054905014156109f55781600560006101000a81548173ffffffffffffffffffffffffffffffffffffffff021916908373ffffffffffffffffffffffffffffffffffffffff1602179055506001600560146101000a81548160ff0219169083151502179055507fc0d325bc40f312e08deb17925a62329f9b09749d007f1cd92d4ab3110208e0ad600560009054906101000a900473ffffffffffffffffffffffffffffffffffffffff166040516109ec9190610e0c565b60405180910390a15b5050565b600080600090505b600280549050811015610a9d5760028181548110610a2257610a216110e4565b5b9060005260206000200160009054906101000a900473ffffffffffffffffffffffffffffffffffffffff1673ffffffffffffffffffffffffffffffffffffffff168373ffffffffffffffffffffffffffffffffffffffff161415610a8a576001915050610aa3565b8080610a95906111a5565b915050610a01565b50600090505b919050565b600033905090565b600080fd5b600073ffffffffffffffffffffffffffffffffffffffff82169050919050565b6000610ae082610ab5565b9050919050565b610af081610ad5565b8114610afb57600080fd5b50565b600081359050610b0d81610ae7565b92915050565b600060208284031215610b2957610b28610ab0565b5b6000610b3784828501610afe565b91505092915050565b6000819050919050565b610b5381610b40565b8114610b5e57600080fd5b50565b600081359050610b7081610b4a565b92915050565b60008060408385031215610b8d57610b8c610ab0565b5b6000610b9b85828601610afe565b9250506020610bac85828601610b61565b9150509250929050565b610bbf81610b40565b82525050565b6000602082019050610bda6000830184610bb6565b92915050565b60008115159050919050565b610bf581610be0565b82525050565b6000602082019050610c106000830184610bec565b92915050565b600082825260208201905092915050565b7f63616c6c6572206d757374206f6e65206f662074686520706172747900000000600082015250565b6000610c5d601c83610c16565b9150610c6882610c27565b602082019050919050565b60006020820190508181036000830152610c8c81610c50565b9050919050565b7f6469737075746520697320696e2077726f6e6720737461746500000000000000600082015250565b6000610cc9601983610c16565b9150610cd482610c93565b602082019050919050565b60006020820190508181036000830152610cf881610cbc565b9050919050565b7f6f6e6c79206a756467652063616e206d616b652074686973206465636973696f60008201527f6e00000000000000000000000000000000000000000000000000000000000000602082015250565b6000610d5b602183610c16565b9150610d6682610cff565b604082019050919050565b60006020820190508181036000830152610d8a81610d4e565b9050919050565b7f74686973206469737075746520697320616c7265616479207265736f6c766564600082015250565b6000610dc7602083610c16565b9150610dd282610d91565b602082019050919050565b60006020820190508181036000830152610df681610dba565b9050919050565b610e0681610ad5565b82525050565b6000602082019050610e216000830184610dfd565b92915050565b6000604082019050610e3c6000830185610dfd565b610e496020830184610bb6565b9392505050565b610e5981610be0565b8114610e6457600080fd5b50565b600081519050610e7681610e50565b92915050565b600060208284031215610e9257610e91610ab0565b5b6000610ea084828501610e67565b91505092915050565b7f6f6e6c79206d616e6167657220636f6e747261637420697320616c6c6f77656460008201527f20746f20696e74657261637420776974682074686973206d6574686f64000000602082015250565b6000610f05603d83610c16565b9150610f1082610ea9565b604082019050919050565b60006020820190508181036000830152610f3481610ef8565b9050919050565b7f4e487b7100000000000000000000000000000000000000000000000000000000600052601160045260246000fd5b6000610f7582610b40565b9150610f8083610b40565b9250827fffffffffffffffffffffffffffffffffffffffffffffffffffffffffffffffff03821115610fb557610fb4610f3b565b5b828201905092915050565b7f6a756467652073686f756c64206e6f74206265207468652073616d652061732060008201527f696e766f6c766564207061727469657300000000000000000000000000000000602082015250565b600061101c603083610c16565b915061102782610fc0565b604082019050919050565b6000602082019050818103600083015261104b8161100f565b9050919050565b7f6a7564676520686173206265656e2061737369676e656420746f20746869732060008201527f6469707574650000000000000000000000000000000000000000000000000000602082015250565b60006110ae602683610c16565b91506110b982611052565b604082019050919050565b600060208201905081810360008301526110dd816110a1565b9050919050565b7f4e487b7100000000000000000000000000000000000000000000000000000000600052603260045260246000fd5b7f7573657220616c726561647920617070726f76656420676976656e206a75646760008201527f6500000000000000000000000000000000000000000000000000000000000000602082015250565b600061116f602183610c16565b915061117a82611113565b604082019050919050565b6000602082019050818103600083015261119e81611162565b9050919050565b60006111b082610b40565b91507fffffffffffffffffffffffffffffffffffffffffffffffffffffffffffffffff8214156111e3576111e2610f3b565b5b60018201905091905056fea2646970667358221220f3d5e5cb8cf228c1550e940fe75372d4aeab2d44d83cc65910c92f3846b41cf164736f6c634300080a0033",
  "immutableReferences": {},
  "source": "// SPDX-License-Identifier: MIT\npragma solidity 0.8.10;\n\nimport \"./FiDiToken.sol\";\nimport \"./FiDisputeManager.sol\";\nimport \"@openzeppelin/contracts/utils/Context.sol\";\n\ncontract FiDispute is Context {\n    FiDiToken fiDiToken;\n    address fiDiManager;\n    address[] parties;\n    uint256 participationStake;\n    uint256 deposit;\n    address judge;\n    bool pendingWinner = false;\n    bool isFinished = false;\n    mapping(address => address[]) approves;\n    bytes32 disputeDescriptionHash;\n\n    event JudgeApproval(address judge);\n\n    event ChosenJudge(address judge);\n\n    event Winner(address winner);\n    constructor(address _fiDiManager, FiDiToken _fiDiToken, address _initiatorParty, bytes32 _disputeDescriptionHash, uint256 initiatorStake) {\n        fiDiManager = _fiDiManager;\n        fiDiToken = _fiDiToken;\n        parties.push(_initiatorParty);\n        disputeDescriptionHash = _disputeDescriptionHash;\n        participationStake = initiatorStake;\n        deposit += initiatorStake;\n    }\n\n    modifier onlyParties(address caller) {\n        require(isParty(caller), \"caller must one of the party\");\n        _;\n    }\n\n    function acceptDispute(address challenger, uint256 challengerStake) public {\n        require(_msgSender() == fiDiManager, \"only manager contract is allowed to interact with this method\");\n        parties.push(challenger);\n        deposit += challengerStake;\n    }   \n\n    function offerJudge(address _judge) public payable onlyParties(_msgSender()) {\n        require(!isParty(_judge), \"judge should not be the same as involved parties\");\n        emit JudgeApproval(_judge);\n    }\n\n    function assignJudge(address _judge) public onlyParties(_msgSender()) {\n        require(!pendingWinner, \"judge has been assigned to this dipute\");\n        for (uint256 index = 0; index < approves[_judge].length; index++) {\n            require(_msgSender() != approves[_judge][index], \"user already approved given judge\");    \n        }\n        approves[_judge].push(_msgSender());\n        if (approves[_judge].length == parties.length) {\n            judge = _judge;\n            pendingWinner = true;\n            emit ChosenJudge(judge);\n        }\n    }\n\n    function chooseWinner(address winner) public onlyParties(winner) {\n        require(pendingWinner, \"dispute is in wrong state\");\n        require(_msgSender() == judge, \"only judge can make this decision\");\n        require(!isFinished, \"this dispute is already resolved\");\n        isFinished = true;\n        emit Winner(winner);\n        fiDiToken.transfer(winner, deposit);\n    }\n\n    function participationStakeValue() public view returns(uint256) {\n        return participationStake;\n    }\n\n    function depositValue() public view returns(uint256) {\n        return deposit;\n    }\n\n    function partiesCount() public view returns(uint256) {\n        return parties.length;\n    }\n\n    function isParty(address candidate) public view returns(bool) {\n        for (uint256 index = 0; index < parties.length; index++) {\n            if (candidate == parties[index]) {\n                return true;\n            }\n        }\n        return false;\n    }\n\n    function requreNotParty(address candidate) private view {\n        for (uint256 index = 0; index < parties.length; index++) {\n            require(candidate != parties[index], \"candidate can't be the same as one of the party\");    \n        }\n    }\n}",
  "sourcePath": "/Users/kirillkochnev/projects/crypto/fi_dispute/contracts/FiDispute.sol",
  "compiler": {
    "name": "solc",
    "version": "0.8.10+commit.fc410830.Emscripten.clang"
  },
  "schemaVersion": "3.4.3",
  "updatedAt": "2021-11-15T14:05:13.934Z",
  "devdoc": {
    "kind": "dev",
    "methods": {},
    "version": 1
  },
  "userdoc": {
    "kind": "user",
    "methods": {},
    "version": 1
  }
}