{
  "contractName": "FiDisputeManager",
  "abi": [
    {
      "inputs": [
        {
          "internalType": "contract FiDiToken",
          "name": "_token",
          "type": "address"
        }
      ],
      "stateMutability": "nonpayable",
      "type": "constructor"
    },
    {
      "anonymous": false,
      "inputs": [
        {
          "indexed": false,
          "internalType": "address",
          "name": "buyer",
          "type": "address"
        }
      ],
      "name": "FiDiTokenExchange",
      "type": "event"
    },
    {
      "anonymous": false,
      "inputs": [
        {
          "indexed": false,
          "internalType": "address",
          "name": "buyer",
          "type": "address"
        }
      ],
      "name": "FiDiTokenRefund",
      "type": "event"
    },
    {
      "anonymous": false,
      "inputs": [
        {
          "indexed": false,
          "internalType": "address",
          "name": "dispute",
          "type": "address"
        },
        {
          "indexed": false,
          "internalType": "address",
          "name": "challenger",
          "type": "address"
        }
      ],
      "name": "FiDisputeAccepted",
      "type": "event"
    },
    {
      "anonymous": false,
      "inputs": [
        {
          "indexed": true,
          "internalType": "address",
          "name": "disputeAddress",
          "type": "address"
        },
        {
          "indexed": false,
          "internalType": "bytes32",
          "name": "disputeHash",
          "type": "bytes32"
        },
        {
          "indexed": false,
          "internalType": "address",
          "name": "initiator",
          "type": "address"
        }
      ],
      "name": "NewOpenDispute",
      "type": "event"
    },
    {
      "stateMutability": "payable",
      "type": "receive",
      "payable": true
    },
    {
      "inputs": [
        {
          "internalType": "bytes32",
          "name": "disputeHash",
          "type": "bytes32"
        },
        {
          "internalType": "uint256",
          "name": "stakeTokenAmount",
          "type": "uint256"
        }
      ],
      "name": "registerDisputeIntention",
      "outputs": [
        {
          "internalType": "address",
          "name": "",
          "type": "address"
        }
      ],
      "stateMutability": "nonpayable",
      "type": "function"
    },
    {
      "inputs": [
        {
          "internalType": "address",
          "name": "dispute",
          "type": "address"
        }
      ],
      "name": "acceptDispute",
      "outputs": [],
      "stateMutability": "nonpayable",
      "type": "function"
    },
    {
      "inputs": [
        {
          "internalType": "uint256",
          "name": "refundAmount",
          "type": "uint256"
        }
      ],
      "name": "refund",
      "outputs": [],
      "stateMutability": "payable",
      "type": "function",
      "payable": true
    },
    {
      "inputs": [],
      "name": "getTokenAddress",
      "outputs": [
        {
          "internalType": "address",
          "name": "",
          "type": "address"
        }
      ],
      "stateMutability": "view",
      "type": "function",
      "constant": true
    }
  ],
  "bytecode": "0x60806040523480156200001157600080fd5b5060405162002846380380620028468339818101604052810190620000379190620000fc565b806000806101000a81548173ffffffffffffffffffffffffffffffffffffffff021916908373ffffffffffffffffffffffffffffffffffffffff160217905550506200012e565b600080fd5b600073ffffffffffffffffffffffffffffffffffffffff82169050919050565b6000620000b08262000083565b9050919050565b6000620000c482620000a3565b9050919050565b620000d681620000b7565b8114620000e257600080fd5b50565b600081519050620000f681620000cb565b92915050565b6000602082840312156200011557620001146200007e565b5b60006200012584828501620000e5565b91505092915050565b612708806200013e6000396000f3fe608060405260043610620000495760003560e01c806310fe9ae81462000060578063278ecde114620000905780639539550314620000b0578063a3c4a0ab14620000f4576200005b565b366200005b576200005962000122565b005b600080fd5b3480156200006d57600080fd5b506200007862000200565b60405162000087919062000b8b565b60405180910390f35b620000ae6004803603810190620000a8919062000be8565b62000229565b005b348015620000bd57600080fd5b50620000dc6004803603810190620000d6919062000c55565b62000446565b604051620000eb919062000b8b565b60405180910390f35b3480156200010157600080fd5b506200012060048036038101906200011a919062000ccd565b6200077a565b005b60008054906101000a900473ffffffffffffffffffffffffffffffffffffffff1673ffffffffffffffffffffffffffffffffffffffff166340c10f196200016862000b30565b346040518363ffffffff1660e01b81526004016200018892919062000d10565b600060405180830381600087803b158015620001a357600080fd5b505af1158015620001b8573d6000803e3d6000fd5b505050507f08e2ffc7a3bc42232dffbca0b33be5af9ad7ed46f551689d37e19fcc65611b05620001e762000b30565b604051620001f6919062000b8b565b60405180910390a1565b60008060009054906101000a900473ffffffffffffffffffffffffffffffffffffffff16905090565b8060008054906101000a900473ffffffffffffffffffffffffffffffffffffffff1673ffffffffffffffffffffffffffffffffffffffff166370a082316200027062000b30565b6040518263ffffffff1660e01b81526004016200028e919062000b8b565b602060405180830381865afa158015620002ac573d6000803e3d6000fd5b505050506040513d601f19601f82011682018060405250810190620002d2919062000d54565b101562000316576040517f08c379a00000000000000000000000000000000000000000000000000000000081526004016200030d9062000de7565b60405180910390fd5b60008054906101000a900473ffffffffffffffffffffffffffffffffffffffff1673ffffffffffffffffffffffffffffffffffffffff166379cc67906200035c62000b30565b836040518363ffffffff1660e01b81526004016200037c92919062000d10565b600060405180830381600087803b1580156200039757600080fd5b505af1158015620003ac573d6000803e3d6000fd5b50505050620003ba62000b30565b73ffffffffffffffffffffffffffffffffffffffff166108fc829081150290604051600060405180830381858888f1935050505015801562000400573d6000803e3d6000fd5b507f6d98f9f54eda4edf5cf37ea849730d862d1ec9a0fc4c86b1ba52e7a8d3334de56200042c62000b30565b6040516200043b919062000b8b565b60405180910390a150565b60008160008054906101000a900473ffffffffffffffffffffffffffffffffffffffff1673ffffffffffffffffffffffffffffffffffffffff166370a082316200048f62000b30565b6040518263ffffffff1660e01b8152600401620004ad919062000b8b565b602060405180830381865afa158015620004cb573d6000803e3d6000fd5b505050506040513d601f19601f82011682018060405250810190620004f1919062000d54565b101562000535576040517f08c379a00000000000000000000000000000000000000000000000000000000081526004016200052c9062000e59565b60405180910390fd5b60003060008054906101000a900473ffffffffffffffffffffffffffffffffffffffff166200056362000b30565b8686604051620005739062000b38565b6200058395949392919062000ef7565b604051809103906000f080158015620005a0573d6000803e3d6000fd5b509050806001600086815260200190815260200160002060006101000a81548173ffffffffffffffffffffffffffffffffffffffff021916908373ffffffffffffffffffffffffffffffffffffffff16021790555060008054906101000a900473ffffffffffffffffffffffffffffffffffffffff1673ffffffffffffffffffffffffffffffffffffffff166323b872dd6200063b62000b30565b838473ffffffffffffffffffffffffffffffffffffffff166387764e7c6040518163ffffffff1660e01b8152600401602060405180830381865afa15801562000688573d6000803e3d6000fd5b505050506040513d601f19601f82011682018060405250810190620006ae919062000d54565b6040518463ffffffff1660e01b8152600401620006ce9392919062000f54565b6020604051808303816000875af1158015620006ee573d6000803e3d6000fd5b505050506040513d601f19601f8201168201806040525081019062000714919062000fce565b508073ffffffffffffffffffffffffffffffffffffffff167f8f2b0361d57522bad6a33e534a83992bbbc73d3be75a9f0115644c7ecc60cc16856200075862000b30565b6040516200076892919062001000565b60405180910390a28091505092915050565b60008190508073ffffffffffffffffffffffffffffffffffffffff166387764e7c6040518163ffffffff1660e01b8152600401602060405180830381865afa158015620007cb573d6000803e3d6000fd5b505050506040513d601f19601f82011682018060405250810190620007f1919062000d54565b60008054906101000a900473ffffffffffffffffffffffffffffffffffffffff1673ffffffffffffffffffffffffffffffffffffffff166370a082316200083762000b30565b6040518263ffffffff1660e01b815260040162000855919062000b8b565b602060405180830381865afa15801562000873573d6000803e3d6000fd5b505050506040513d601f19601f8201168201806040525081019062000899919062000d54565b1015620008dd576040517f08c379a0000000000000000000000000000000000000000000000000000000008152600401620008d4906200107d565b60405180910390fd5b8073ffffffffffffffffffffffffffffffffffffffff166363d5f85a6200090362000b30565b8373ffffffffffffffffffffffffffffffffffffffff166387764e7c6040518163ffffffff1660e01b8152600401602060405180830381865afa1580156200094f573d6000803e3d6000fd5b505050506040513d601f19601f8201168201806040525081019062000975919062000d54565b6040518363ffffffff1660e01b81526004016200099492919062000d10565b600060405180830381600087803b158015620009af57600080fd5b505af1158015620009c4573d6000803e3d6000fd5b5050505060008054906101000a900473ffffffffffffffffffffffffffffffffffffffff1673ffffffffffffffffffffffffffffffffffffffff166323b872dd62000a0e62000b30565b848473ffffffffffffffffffffffffffffffffffffffff166387764e7c6040518163ffffffff1660e01b8152600401602060405180830381865afa15801562000a5b573d6000803e3d6000fd5b505050506040513d601f19601f8201168201806040525081019062000a81919062000d54565b6040518463ffffffff1660e01b815260040162000aa19392919062000f54565b6020604051808303816000875af115801562000ac1573d6000803e3d6000fd5b505050506040513d601f19601f8201168201806040525081019062000ae7919062000fce565b507f5229161f49bb30baef56d7a2ea9a8db21c70be17096fed7390a40c8c0be96b5d8262000b1462000b30565b60405162000b249291906200109f565b60405180910390a15050565b600033905090565b61160680620010cd83390190565b600073ffffffffffffffffffffffffffffffffffffffff82169050919050565b600062000b738262000b46565b9050919050565b62000b858162000b66565b82525050565b600060208201905062000ba2600083018462000b7a565b92915050565b600080fd5b6000819050919050565b62000bc28162000bad565b811462000bce57600080fd5b50565b60008135905062000be28162000bb7565b92915050565b60006020828403121562000c015762000c0062000ba8565b5b600062000c118482850162000bd1565b91505092915050565b6000819050919050565b62000c2f8162000c1a565b811462000c3b57600080fd5b50565b60008135905062000c4f8162000c24565b92915050565b6000806040838503121562000c6f5762000c6e62000ba8565b5b600062000c7f8582860162000c3e565b925050602062000c928582860162000bd1565b9150509250929050565b62000ca78162000b66565b811462000cb357600080fd5b50565b60008135905062000cc78162000c9c565b92915050565b60006020828403121562000ce65762000ce562000ba8565b5b600062000cf68482850162000cb6565b91505092915050565b62000d0a8162000bad565b82525050565b600060408201905062000d27600083018562000b7a565b62000d36602083018462000cff565b9392505050565b60008151905062000d4e8162000bb7565b92915050565b60006020828403121562000d6d5762000d6c62000ba8565b5b600062000d7d8482850162000d3d565b91505092915050565b600082825260208201905092915050565b7f6e6f7420656e6f75676820746f6b656e00000000000000000000000000000000600082015250565b600062000dcf60108362000d86565b915062000ddc8262000d97565b602082019050919050565b6000602082019050818103600083015262000e028162000dc0565b9050919050565b7f6e6f7420656e6f75676820746f6b656e73000000000000000000000000000000600082015250565b600062000e4160118362000d86565b915062000e4e8262000e09565b602082019050919050565b6000602082019050818103600083015262000e748162000e32565b9050919050565b6000819050919050565b600062000ea662000ea062000e9a8462000b46565b62000e7b565b62000b46565b9050919050565b600062000eba8262000e85565b9050919050565b600062000ece8262000ead565b9050919050565b62000ee08162000ec1565b82525050565b62000ef18162000c1a565b82525050565b600060a08201905062000f0e600083018862000b7a565b62000f1d602083018762000ed5565b62000f2c604083018662000b7a565b62000f3b606083018562000ee6565b62000f4a608083018462000cff565b9695505050505050565b600060608201905062000f6b600083018662000b7a565b62000f7a602083018562000b7a565b62000f89604083018462000cff565b949350505050565b60008115159050919050565b62000fa88162000f91565b811462000fb457600080fd5b50565b60008151905062000fc88162000f9d565b92915050565b60006020828403121562000fe75762000fe662000ba8565b5b600062000ff78482850162000fb7565b91505092915050565b600060408201905062001017600083018562000ee6565b62001026602083018462000b7a565b9392505050565b7f6e6f20656e6f75676820746f6b656e20746f2070617274696369706174650000600082015250565b600062001065601e8362000d86565b915062001072826200102d565b602082019050919050565b60006020820190508181036000830152620010988162001056565b9050919050565b6000604082019050620010b6600083018562000b7a565b620010c5602083018462000b7a565b939250505056fe60806040526000600560146101000a81548160ff0219169083151502179055506000600560156101000a81548160ff0219169083151502179055503480156200004757600080fd5b50604051620016063803806200160683398181016040528101906200006d9190620002aa565b84600160006101000a81548173ffffffffffffffffffffffffffffffffffffffff021916908373ffffffffffffffffffffffffffffffffffffffff160217905550836000806101000a81548173ffffffffffffffffffffffffffffffffffffffff021916908373ffffffffffffffffffffffffffffffffffffffff1602179055506002839080600181540180825580915050600190039060005260206000200160009091909190916101000a81548173ffffffffffffffffffffffffffffffffffffffff021916908373ffffffffffffffffffffffffffffffffffffffff1602179055508160078190555080600381905550806004600082825462000173919062000361565b925050819055505050505050620003be565b600080fd5b600073ffffffffffffffffffffffffffffffffffffffff82169050919050565b6000620001b7826200018a565b9050919050565b620001c981620001aa565b8114620001d557600080fd5b50565b600081519050620001e981620001be565b92915050565b6000620001fc82620001aa565b9050919050565b6200020e81620001ef565b81146200021a57600080fd5b50565b6000815190506200022e8162000203565b92915050565b6000819050919050565b620002498162000234565b81146200025557600080fd5b50565b60008151905062000269816200023e565b92915050565b6000819050919050565b62000284816200026f565b81146200029057600080fd5b50565b600081519050620002a48162000279565b92915050565b600080600080600060a08688031215620002c957620002c862000185565b5b6000620002d988828901620001d8565b9550506020620002ec888289016200021d565b9450506040620002ff88828901620001d8565b9350506060620003128882890162000258565b9250506080620003258882890162000293565b9150509295509295909350565b7f4e487b7100000000000000000000000000000000000000000000000000000000600052601160045260246000fd5b60006200036e826200026f565b91506200037b836200026f565b9250827fffffffffffffffffffffffffffffffffffffffffffffffffffffffffffffffff03821115620003b357620003b262000332565b5b828201905092915050565b61123880620003ce6000396000f3fe60806040526004361061007b5760003560e01c8063b7bbd5671161004e578063b7bbd56714610119578063c56a354014610144578063ca04ddcb1461016f578063fc78b2e8146101985761007b565b80633c7bb9131461008057806363d5f85a146100a957806387764e7c146100d2578063987a0e62146100fd575b600080fd5b34801561008c57600080fd5b506100a760048036038101906100a29190610b19565b6101d5565b005b3480156100b557600080fd5b506100d060048036038101906100cb9190610b7c565b61044d565b005b3480156100de57600080fd5b506100e7610564565b6040516100f49190610bcb565b60405180910390f35b61011760048036038101906101129190610b19565b61056e565b005b34801561012557600080fd5b5061012e610644565b60405161013b9190610bcb565b60405180910390f35b34801561015057600080fd5b5061015961064e565b6040516101669190610bcb565b60405180910390f35b34801561017b57600080fd5b5061019660048036038101906101919190610b19565b61065b565b005b3480156101a457600080fd5b506101bf60048036038101906101ba9190610b19565b6109ff565b6040516101cc9190610c01565b60405180910390f35b806101df816109ff565b61021e576040517f08c379a000000000000000000000000000000000000000000000000000000000815260040161021590610c79565b60405180910390fd5b600560149054906101000a900460ff1661026d576040517f08c379a000000000000000000000000000000000000000000000000000000000815260040161026490610ce5565b60405180910390fd5b600560009054906101000a900473ffffffffffffffffffffffffffffffffffffffff1673ffffffffffffffffffffffffffffffffffffffff166102ae610aae565b73ffffffffffffffffffffffffffffffffffffffff1614610304576040517f08c379a00000000000000000000000000000000000000000000000000000000081526004016102fb90610d77565b60405180910390fd5b600560159054906101000a900460ff1615610354576040517f08c379a000000000000000000000000000000000000000000000000000000000815260040161034b90610de3565b60405180910390fd5b6001600560156101000a81548160ff0219169083151502179055507f42e8b7eb14d433e725455832b5fa324ba9e3916a20fd902a01d6a16825df997930836040516103a0929190610e12565b60405180910390a160008054906101000a900473ffffffffffffffffffffffffffffffffffffffff1673ffffffffffffffffffffffffffffffffffffffff1663a9059cbb836004546040518363ffffffff1660e01b8152600401610405929190610e3b565b6020604051808303816000875af1158015610424573d6000803e3d6000fd5b505050506040513d601f19601f820116820180604052508101906104489190610e90565b505050565b600160009054906101000a900473ffffffffffffffffffffffffffffffffffffffff1673ffffffffffffffffffffffffffffffffffffffff1661048e610aae565b73ffffffffffffffffffffffffffffffffffffffff16146104e4576040517f08c379a00000000000000000000000000000000000000000000000000000000081526004016104db90610f2f565b60405180910390fd5b6002829080600181540180825580915050600190039060005260206000200160009091909190916101000a81548173ffffffffffffffffffffffffffffffffffffffff021916908373ffffffffffffffffffffffffffffffffffffffff16021790555080600460008282546105599190610f7e565b925050819055505050565b6000600354905090565b610576610aae565b61057f816109ff565b6105be576040517f08c379a00000000000000000000000000000000000000000000000000000000081526004016105b590610c79565b60405180910390fd5b6105c7826109ff565b15610607576040517f08c379a00000000000000000000000000000000000000000000000000000000081526004016105fe90611046565b60405180910390fd5b7ffdcd05e9f895a7f6f1c254c22362457d5e17ffa49d03957040806cd0bb8451653083604051610638929190610e12565b60405180910390a15050565b6000600454905090565b6000600280549050905090565b610663610aae565b61066c816109ff565b6106ab576040517f08c379a00000000000000000000000000000000000000000000000000000000081526004016106a290610c79565b60405180910390fd5b600560149054906101000a900460ff16156106fb576040517f08c379a00000000000000000000000000000000000000000000000000000000081526004016106f2906110d8565b60405180910390fd5b60005b600660008473ffffffffffffffffffffffffffffffffffffffff1673ffffffffffffffffffffffffffffffffffffffff1681526020019081526020016000208054905081101561084c57600660008473ffffffffffffffffffffffffffffffffffffffff1673ffffffffffffffffffffffffffffffffffffffff1681526020019081526020016000208181548110610799576107986110f8565b5b9060005260206000200160009054906101000a900473ffffffffffffffffffffffffffffffffffffffff1673ffffffffffffffffffffffffffffffffffffffff166107e2610aae565b73ffffffffffffffffffffffffffffffffffffffff161415610839576040517f08c379a000000000000000000000000000000000000000000000000000000000815260040161083090611199565b60405180910390fd5b8080610844906111b9565b9150506106fe565b50600660008373ffffffffffffffffffffffffffffffffffffffff1673ffffffffffffffffffffffffffffffffffffffff168152602001908152602001600020610894610aae565b9080600181540180825580915050600190039060005260206000200160009091909190916101000a81548173ffffffffffffffffffffffffffffffffffffffff021916908373ffffffffffffffffffffffffffffffffffffffff160217905550600280549050600660008473ffffffffffffffffffffffffffffffffffffffff1673ffffffffffffffffffffffffffffffffffffffff1681526020019081526020016000208054905014156109fb5781600560006101000a81548173ffffffffffffffffffffffffffffffffffffffff021916908373ffffffffffffffffffffffffffffffffffffffff1602179055506001600560146101000a81548160ff0219169083151502179055507fa0f3c11b83beb1f2e09fa0310e9c6bdeffe84c384ee66c51ada89333282a605a30600560009054906101000a900473ffffffffffffffffffffffffffffffffffffffff166040516109f2929190610e12565b60405180910390a15b5050565b600080600090505b600280549050811015610aa35760028181548110610a2857610a276110f8565b5b9060005260206000200160009054906101000a900473ffffffffffffffffffffffffffffffffffffffff1673ffffffffffffffffffffffffffffffffffffffff168373ffffffffffffffffffffffffffffffffffffffff161415610a90576001915050610aa9565b8080610a9b906111b9565b915050610a07565b50600090505b919050565b600033905090565b600080fd5b600073ffffffffffffffffffffffffffffffffffffffff82169050919050565b6000610ae682610abb565b9050919050565b610af681610adb565b8114610b0157600080fd5b50565b600081359050610b1381610aed565b92915050565b600060208284031215610b2f57610b2e610ab6565b5b6000610b3d84828501610b04565b91505092915050565b6000819050919050565b610b5981610b46565b8114610b6457600080fd5b50565b600081359050610b7681610b50565b92915050565b60008060408385031215610b9357610b92610ab6565b5b6000610ba185828601610b04565b9250506020610bb285828601610b67565b9150509250929050565b610bc581610b46565b82525050565b6000602082019050610be06000830184610bbc565b92915050565b60008115159050919050565b610bfb81610be6565b82525050565b6000602082019050610c166000830184610bf2565b92915050565b600082825260208201905092915050565b7f63616c6c6572206d757374206f6e65206f662074686520706172747900000000600082015250565b6000610c63601c83610c1c565b9150610c6e82610c2d565b602082019050919050565b60006020820190508181036000830152610c9281610c56565b9050919050565b7f6469737075746520697320696e2077726f6e6720737461746500000000000000600082015250565b6000610ccf601983610c1c565b9150610cda82610c99565b602082019050919050565b60006020820190508181036000830152610cfe81610cc2565b9050919050565b7f6f6e6c79206a756467652063616e206d616b652074686973206465636973696f60008201527f6e00000000000000000000000000000000000000000000000000000000000000602082015250565b6000610d61602183610c1c565b9150610d6c82610d05565b604082019050919050565b60006020820190508181036000830152610d9081610d54565b9050919050565b7f74686973206469737075746520697320616c7265616479207265736f6c766564600082015250565b6000610dcd602083610c1c565b9150610dd882610d97565b602082019050919050565b60006020820190508181036000830152610dfc81610dc0565b9050919050565b610e0c81610adb565b82525050565b6000604082019050610e276000830185610e03565b610e346020830184610e03565b9392505050565b6000604082019050610e506000830185610e03565b610e5d6020830184610bbc565b9392505050565b610e6d81610be6565b8114610e7857600080fd5b50565b600081519050610e8a81610e64565b92915050565b600060208284031215610ea657610ea5610ab6565b5b6000610eb484828501610e7b565b91505092915050565b7f6f6e6c79206d616e6167657220636f6e747261637420697320616c6c6f77656460008201527f20746f20696e74657261637420776974682074686973206d6574686f64000000602082015250565b6000610f19603d83610c1c565b9150610f2482610ebd565b604082019050919050565b60006020820190508181036000830152610f4881610f0c565b9050919050565b7f4e487b7100000000000000000000000000000000000000000000000000000000600052601160045260246000fd5b6000610f8982610b46565b9150610f9483610b46565b9250827fffffffffffffffffffffffffffffffffffffffffffffffffffffffffffffffff03821115610fc957610fc8610f4f565b5b828201905092915050565b7f6a756467652073686f756c64206e6f74206265207468652073616d652061732060008201527f696e766f6c766564207061727469657300000000000000000000000000000000602082015250565b6000611030603083610c1c565b915061103b82610fd4565b604082019050919050565b6000602082019050818103600083015261105f81611023565b9050919050565b7f6a7564676520686173206265656e2061737369676e656420746f20746869732060008201527f6469707574650000000000000000000000000000000000000000000000000000602082015250565b60006110c2602683610c1c565b91506110cd82611066565b604082019050919050565b600060208201905081810360008301526110f1816110b5565b9050919050565b7f4e487b7100000000000000000000000000000000000000000000000000000000600052603260045260246000fd5b7f7573657220616c726561647920617070726f76656420676976656e206a75646760008201527f6500000000000000000000000000000000000000000000000000000000000000602082015250565b6000611183602183610c1c565b915061118e82611127565b604082019050919050565b600060208201905081810360008301526111b281611176565b9050919050565b60006111c482610b46565b91507fffffffffffffffffffffffffffffffffffffffffffffffffffffffffffffffff8214156111f7576111f6610f4f565b5b60018201905091905056fea2646970667358221220ace58a14f6a638005b0dd94fd46e2b65d23079e1211e80dfbaccc4016cc9479364736f6c634300080a0033a2646970667358221220df2a783066531528ca0aba8c73c652ef521003df501f0e94fc0e56d17f7ec46864736f6c634300080a0033",
  "immutableReferences": {},
  "source": "// SPDX-License-Identifier: MIT\npragma solidity 0.8.10;\n\nimport \"./FiDispute.sol\";\nimport \"./FiDiToken.sol\";\nimport \"@openzeppelin/contracts/utils/Context.sol\";\nimport \"@openzeppelin/contracts/token/ERC20/IERC20.sol\";\n\ncontract FiDisputeManager is Context {\n\n    FiDiToken token;\n\n    mapping(bytes32 => address) disputes; \n\n    event NewOpenDispute(address indexed disputeAddress, bytes32 disputeHash, address initiator);\n\n    event FiDiTokenExchange(address buyer);\n\n    event FiDiTokenRefund(address buyer);\n\n    event FiDisputeAccepted(address dispute, address challenger);\n\n    constructor(FiDiToken _token) {\n        token = _token;\n    }\n\n    receive() payable external {\n        _obtainDisputeTokens();\n    }\n\n    function registerDisputeIntention(bytes32 disputeHash, uint256 stakeTokenAmount) public returns(address) {\n        require(token.balanceOf(_msgSender()) >= stakeTokenAmount, \"not enough tokens\");\n        FiDispute dispute = new FiDispute(address(this) ,token, _msgSender(), disputeHash, stakeTokenAmount);\n        disputes[disputeHash] = address(dispute);\n        token.transferFrom(\n            _msgSender(),\n            address(dispute),\n            dispute.participationStakeValue()\n        );\n        emit NewOpenDispute(address(dispute), disputeHash, _msgSender());\n        return address(dispute);\n    }\n\n    function acceptDispute(address dispute) public {\n        FiDispute disputeInstance = FiDispute(dispute);\n        require(\n            token.balanceOf(_msgSender()) >= disputeInstance.participationStakeValue(),\n            \"no enough token to participate\"\n        );\n        disputeInstance.acceptDispute(_msgSender(), disputeInstance.participationStakeValue());\n        token.transferFrom(\n            _msgSender(),\n            dispute,\n            disputeInstance.participationStakeValue()\n        );\n        emit FiDisputeAccepted(dispute, _msgSender());\n    }\n\n    function refund(uint256 refundAmount) public payable {\n        require(token.balanceOf(_msgSender()) >= refundAmount, \"not enough token\");\n        token.burnFrom(_msgSender(), refundAmount);\n        payable(_msgSender()).transfer(refundAmount);\n        emit FiDiTokenRefund(_msgSender());\n    }\n\n    function getTokenAddress() public view returns(address) {\n        return address(token);\n    }\n\n    function _obtainDisputeTokens() private {\n        token.mint(_msgSender(), msg.value);\n        emit FiDiTokenExchange(_msgSender());\n    }\n\n}",
  "sourcePath": "/Users/kirillkochnev/projects/crypto/fi_dispute/contracts/FiDisputeManager.sol",
  "compiler": {
    "name": "solc",
    "version": "0.8.10+commit.fc410830.Emscripten.clang"
  },
  "schemaVersion": "3.4.3",
  "updatedAt": "2021-11-30T16:11:34.479Z",
  "networkType": "ethereum",
  "devdoc": {
    "kind": "dev",
    "methods": {},
    "version": 1
  },
  "userdoc": {
    "kind": "user",
    "methods": {},
    "version": 1
  }
}