{
  "contractName": "FiDisputeManager",
  "abi": [
    {
      "inputs": [
        {
          "internalType": "contract FiDiToken",
          "name": "_token",
          "type": "address"
        }
      ],
      "stateMutability": "nonpayable",
      "type": "constructor"
    },
    {
      "anonymous": false,
      "inputs": [
        {
          "indexed": false,
          "internalType": "address",
          "name": "buyer",
          "type": "address"
        }
      ],
      "name": "FiDiTokenExchange",
      "type": "event"
    },
    {
      "anonymous": false,
      "inputs": [
        {
          "indexed": false,
          "internalType": "address",
          "name": "buyer",
          "type": "address"
        }
      ],
      "name": "FiDiTokenRefund",
      "type": "event"
    },
    {
      "anonymous": false,
      "inputs": [
        {
          "indexed": false,
          "internalType": "address",
          "name": "dispute",
          "type": "address"
        },
        {
          "indexed": false,
          "internalType": "address",
          "name": "challenger",
          "type": "address"
        }
      ],
      "name": "FiDisputeAccepted",
      "type": "event"
    },
    {
      "anonymous": false,
      "inputs": [
        {
          "indexed": true,
          "internalType": "address",
          "name": "disputeAddress",
          "type": "address"
        },
        {
          "indexed": false,
          "internalType": "address",
          "name": "initiator",
          "type": "address"
        },
        {
          "indexed": false,
          "internalType": "address",
          "name": "challenger",
          "type": "address"
        },
        {
          "indexed": false,
          "internalType": "address",
          "name": "judge",
          "type": "address"
        }
      ],
      "name": "NewCompleteDispute",
      "type": "event"
    },
    {
      "anonymous": false,
      "inputs": [
        {
          "indexed": true,
          "internalType": "address",
          "name": "disputeAddress",
          "type": "address"
        }
      ],
      "name": "NewOpenDispute",
      "type": "event"
    },
    {
      "stateMutability": "payable",
      "type": "receive",
      "payable": true
    },
    {
      "inputs": [
        {
          "internalType": "bytes32",
          "name": "disputeHash",
          "type": "bytes32"
        },
        {
          "internalType": "uint256",
          "name": "stakeTokenAmount",
          "type": "uint256"
        }
      ],
      "name": "registerDisputeIntention",
      "outputs": [
        {
          "internalType": "address",
          "name": "",
          "type": "address"
        }
      ],
      "stateMutability": "nonpayable",
      "type": "function"
    },
    {
      "inputs": [
        {
          "internalType": "address",
          "name": "dispute",
          "type": "address"
        }
      ],
      "name": "acceptDispute",
      "outputs": [],
      "stateMutability": "nonpayable",
      "type": "function"
    },
    {
      "inputs": [
        {
          "internalType": "uint256",
          "name": "refundAmount",
          "type": "uint256"
        }
      ],
      "name": "refund",
      "outputs": [],
      "stateMutability": "payable",
      "type": "function",
      "payable": true
    },
    {
      "inputs": [],
      "name": "getTokenAddress",
      "outputs": [
        {
          "internalType": "address",
          "name": "",
          "type": "address"
        }
      ],
      "stateMutability": "view",
      "type": "function",
      "constant": true
    }
  ],
  "bytecode": "0x60806040523480156200001157600080fd5b50604051620027ed380380620027ed8339818101604052810190620000379190620000fc565b806000806101000a81548173ffffffffffffffffffffffffffffffffffffffff021916908373ffffffffffffffffffffffffffffffffffffffff160217905550506200012e565b600080fd5b600073ffffffffffffffffffffffffffffffffffffffff82169050919050565b6000620000b08262000083565b9050919050565b6000620000c482620000a3565b9050919050565b620000d681620000b7565b8114620000e257600080fd5b50565b600081519050620000f681620000cb565b92915050565b6000602082840312156200011557620001146200007e565b5b60006200012584828501620000e5565b91505092915050565b6126af806200013e6000396000f3fe608060405260043610620000495760003560e01c806310fe9ae81462000060578063278ecde114620000905780639539550314620000b0578063a3c4a0ab14620000f4576200005b565b366200005b576200005962000122565b005b600080fd5b3480156200006d57600080fd5b506200007862000200565b60405162000087919062000b73565b60405180910390f35b620000ae6004803603810190620000a8919062000bd0565b62000229565b005b348015620000bd57600080fd5b50620000dc6004803603810190620000d6919062000c3d565b62000446565b604051620000eb919062000b73565b60405180910390f35b3480156200010157600080fd5b506200012060048036038101906200011a919062000cb5565b62000762565b005b60008054906101000a900473ffffffffffffffffffffffffffffffffffffffff1673ffffffffffffffffffffffffffffffffffffffff166340c10f196200016862000b18565b346040518363ffffffff1660e01b81526004016200018892919062000cf8565b600060405180830381600087803b158015620001a357600080fd5b505af1158015620001b8573d6000803e3d6000fd5b505050507f08e2ffc7a3bc42232dffbca0b33be5af9ad7ed46f551689d37e19fcc65611b05620001e762000b18565b604051620001f6919062000b73565b60405180910390a1565b60008060009054906101000a900473ffffffffffffffffffffffffffffffffffffffff16905090565b8060008054906101000a900473ffffffffffffffffffffffffffffffffffffffff1673ffffffffffffffffffffffffffffffffffffffff166370a082316200027062000b18565b6040518263ffffffff1660e01b81526004016200028e919062000b73565b602060405180830381865afa158015620002ac573d6000803e3d6000fd5b505050506040513d601f19601f82011682018060405250810190620002d2919062000d3c565b101562000316576040517f08c379a00000000000000000000000000000000000000000000000000000000081526004016200030d9062000dcf565b60405180910390fd5b60008054906101000a900473ffffffffffffffffffffffffffffffffffffffff1673ffffffffffffffffffffffffffffffffffffffff166379cc67906200035c62000b18565b836040518363ffffffff1660e01b81526004016200037c92919062000cf8565b600060405180830381600087803b1580156200039757600080fd5b505af1158015620003ac573d6000803e3d6000fd5b50505050620003ba62000b18565b73ffffffffffffffffffffffffffffffffffffffff166108fc829081150290604051600060405180830381858888f1935050505015801562000400573d6000803e3d6000fd5b507f6d98f9f54eda4edf5cf37ea849730d862d1ec9a0fc4c86b1ba52e7a8d3334de56200042c62000b18565b6040516200043b919062000b73565b60405180910390a150565b60008160008054906101000a900473ffffffffffffffffffffffffffffffffffffffff1673ffffffffffffffffffffffffffffffffffffffff166370a082316200048f62000b18565b6040518263ffffffff1660e01b8152600401620004ad919062000b73565b602060405180830381865afa158015620004cb573d6000803e3d6000fd5b505050506040513d601f19601f82011682018060405250810190620004f1919062000d3c565b101562000535576040517f08c379a00000000000000000000000000000000000000000000000000000000081526004016200052c9062000e41565b60405180910390fd5b60003060008054906101000a900473ffffffffffffffffffffffffffffffffffffffff166200056362000b18565b8686604051620005739062000b20565b6200058395949392919062000edf565b604051809103906000f080158015620005a0573d6000803e3d6000fd5b509050806001600086815260200190815260200160002060006101000a81548173ffffffffffffffffffffffffffffffffffffffff021916908373ffffffffffffffffffffffffffffffffffffffff16021790555060008054906101000a900473ffffffffffffffffffffffffffffffffffffffff1673ffffffffffffffffffffffffffffffffffffffff166323b872dd6200063b62000b18565b838473ffffffffffffffffffffffffffffffffffffffff166387764e7c6040518163ffffffff1660e01b8152600401602060405180830381865afa15801562000688573d6000803e3d6000fd5b505050506040513d601f19601f82011682018060405250810190620006ae919062000d3c565b6040518463ffffffff1660e01b8152600401620006ce9392919062000f3c565b6020604051808303816000875af1158015620006ee573d6000803e3d6000fd5b505050506040513d601f19601f8201168201806040525081019062000714919062000fb6565b508073ffffffffffffffffffffffffffffffffffffffff167fe39f2337d662130d6be1167af2d10a1952cb4658a999e715263f37edcf6232ea60405160405180910390a28091505092915050565b60008190508073ffffffffffffffffffffffffffffffffffffffff166387764e7c6040518163ffffffff1660e01b8152600401602060405180830381865afa158015620007b3573d6000803e3d6000fd5b505050506040513d601f19601f82011682018060405250810190620007d9919062000d3c565b60008054906101000a900473ffffffffffffffffffffffffffffffffffffffff1673ffffffffffffffffffffffffffffffffffffffff166370a082316200081f62000b18565b6040518263ffffffff1660e01b81526004016200083d919062000b73565b602060405180830381865afa1580156200085b573d6000803e3d6000fd5b505050506040513d601f19601f8201168201806040525081019062000881919062000d3c565b1015620008c5576040517f08c379a0000000000000000000000000000000000000000000000000000000008152600401620008bc9062001038565b60405180910390fd5b8073ffffffffffffffffffffffffffffffffffffffff166363d5f85a620008eb62000b18565b8373ffffffffffffffffffffffffffffffffffffffff166387764e7c6040518163ffffffff1660e01b8152600401602060405180830381865afa15801562000937573d6000803e3d6000fd5b505050506040513d601f19601f820116820180604052508101906200095d919062000d3c565b6040518363ffffffff1660e01b81526004016200097c92919062000cf8565b600060405180830381600087803b1580156200099757600080fd5b505af1158015620009ac573d6000803e3d6000fd5b5050505060008054906101000a900473ffffffffffffffffffffffffffffffffffffffff1673ffffffffffffffffffffffffffffffffffffffff166323b872dd620009f662000b18565b848473ffffffffffffffffffffffffffffffffffffffff166387764e7c6040518163ffffffff1660e01b8152600401602060405180830381865afa15801562000a43573d6000803e3d6000fd5b505050506040513d601f19601f8201168201806040525081019062000a69919062000d3c565b6040518463ffffffff1660e01b815260040162000a899392919062000f3c565b6020604051808303816000875af115801562000aa9573d6000803e3d6000fd5b505050506040513d601f19601f8201168201806040525081019062000acf919062000fb6565b507f5229161f49bb30baef56d7a2ea9a8db21c70be17096fed7390a40c8c0be96b5d8262000afc62000b18565b60405162000b0c9291906200105a565b60405180910390a15050565b600033905090565b6115f2806200108883390190565b600073ffffffffffffffffffffffffffffffffffffffff82169050919050565b600062000b5b8262000b2e565b9050919050565b62000b6d8162000b4e565b82525050565b600060208201905062000b8a600083018462000b62565b92915050565b600080fd5b6000819050919050565b62000baa8162000b95565b811462000bb657600080fd5b50565b60008135905062000bca8162000b9f565b92915050565b60006020828403121562000be95762000be862000b90565b5b600062000bf98482850162000bb9565b91505092915050565b6000819050919050565b62000c178162000c02565b811462000c2357600080fd5b50565b60008135905062000c378162000c0c565b92915050565b6000806040838503121562000c575762000c5662000b90565b5b600062000c678582860162000c26565b925050602062000c7a8582860162000bb9565b9150509250929050565b62000c8f8162000b4e565b811462000c9b57600080fd5b50565b60008135905062000caf8162000c84565b92915050565b60006020828403121562000cce5762000ccd62000b90565b5b600062000cde8482850162000c9e565b91505092915050565b62000cf28162000b95565b82525050565b600060408201905062000d0f600083018562000b62565b62000d1e602083018462000ce7565b9392505050565b60008151905062000d368162000b9f565b92915050565b60006020828403121562000d555762000d5462000b90565b5b600062000d658482850162000d25565b91505092915050565b600082825260208201905092915050565b7f6e6f7420656e6f75676820746f6b656e00000000000000000000000000000000600082015250565b600062000db760108362000d6e565b915062000dc48262000d7f565b602082019050919050565b6000602082019050818103600083015262000dea8162000da8565b9050919050565b7f6e6f7420656e6f75676820746f6b656e73000000000000000000000000000000600082015250565b600062000e2960118362000d6e565b915062000e368262000df1565b602082019050919050565b6000602082019050818103600083015262000e5c8162000e1a565b9050919050565b6000819050919050565b600062000e8e62000e8862000e828462000b2e565b62000e63565b62000b2e565b9050919050565b600062000ea28262000e6d565b9050919050565b600062000eb68262000e95565b9050919050565b62000ec88162000ea9565b82525050565b62000ed98162000c02565b82525050565b600060a08201905062000ef6600083018862000b62565b62000f05602083018762000ebd565b62000f14604083018662000b62565b62000f23606083018562000ece565b62000f32608083018462000ce7565b9695505050505050565b600060608201905062000f53600083018662000b62565b62000f62602083018562000b62565b62000f71604083018462000ce7565b949350505050565b60008115159050919050565b62000f908162000f79565b811462000f9c57600080fd5b50565b60008151905062000fb08162000f85565b92915050565b60006020828403121562000fcf5762000fce62000b90565b5b600062000fdf8482850162000f9f565b91505092915050565b7f6e6f20656e6f75676820746f6b656e20746f2070617274696369706174650000600082015250565b600062001020601e8362000d6e565b91506200102d8262000fe8565b602082019050919050565b60006020820190508181036000830152620010538162001011565b9050919050565b600060408201905062001071600083018562000b62565b62001080602083018462000b62565b939250505056fe60806040526000600560146101000a81548160ff0219169083151502179055506000600560156101000a81548160ff0219169083151502179055503480156200004757600080fd5b50604051620015f2380380620015f283398181016040528101906200006d9190620002aa565b84600160006101000a81548173ffffffffffffffffffffffffffffffffffffffff021916908373ffffffffffffffffffffffffffffffffffffffff160217905550836000806101000a81548173ffffffffffffffffffffffffffffffffffffffff021916908373ffffffffffffffffffffffffffffffffffffffff1602179055506002839080600181540180825580915050600190039060005260206000200160009091909190916101000a81548173ffffffffffffffffffffffffffffffffffffffff021916908373ffffffffffffffffffffffffffffffffffffffff1602179055508160078190555080600381905550806004600082825462000173919062000361565b925050819055505050505050620003be565b600080fd5b600073ffffffffffffffffffffffffffffffffffffffff82169050919050565b6000620001b7826200018a565b9050919050565b620001c981620001aa565b8114620001d557600080fd5b50565b600081519050620001e981620001be565b92915050565b6000620001fc82620001aa565b9050919050565b6200020e81620001ef565b81146200021a57600080fd5b50565b6000815190506200022e8162000203565b92915050565b6000819050919050565b620002498162000234565b81146200025557600080fd5b50565b60008151905062000269816200023e565b92915050565b6000819050919050565b62000284816200026f565b81146200029057600080fd5b50565b600081519050620002a48162000279565b92915050565b600080600080600060a08688031215620002c957620002c862000185565b5b6000620002d988828901620001d8565b9550506020620002ec888289016200021d565b9450506040620002ff88828901620001d8565b9350506060620003128882890162000258565b9250506080620003258882890162000293565b9150509295509295909350565b7f4e487b7100000000000000000000000000000000000000000000000000000000600052601160045260246000fd5b60006200036e826200026f565b91506200037b836200026f565b9250827fffffffffffffffffffffffffffffffffffffffffffffffffffffffffffffffff03821115620003b357620003b262000332565b5b828201905092915050565b61122480620003ce6000396000f3fe60806040526004361061007b5760003560e01c8063b7bbd5671161004e578063b7bbd56714610119578063c56a354014610144578063ca04ddcb1461016f578063fc78b2e8146101985761007b565b80633c7bb9131461008057806363d5f85a146100a957806387764e7c146100d2578063987a0e62146100fd575b600080fd5b34801561008c57600080fd5b506100a760048036038101906100a29190610b13565b6101d5565b005b3480156100b557600080fd5b506100d060048036038101906100cb9190610b76565b61044b565b005b3480156100de57600080fd5b506100e7610562565b6040516100f49190610bc5565b60405180910390f35b61011760048036038101906101129190610b13565b61056c565b005b34801561012557600080fd5b5061012e610640565b60405161013b9190610bc5565b60405180910390f35b34801561015057600080fd5b5061015961064a565b6040516101669190610bc5565b60405180910390f35b34801561017b57600080fd5b5061019660048036038101906101919190610b13565b610657565b005b3480156101a457600080fd5b506101bf60048036038101906101ba9190610b13565b6109f9565b6040516101cc9190610bfb565b60405180910390f35b806101df816109f9565b61021e576040517f08c379a000000000000000000000000000000000000000000000000000000000815260040161021590610c73565b60405180910390fd5b600560149054906101000a900460ff1661026d576040517f08c379a000000000000000000000000000000000000000000000000000000000815260040161026490610cdf565b60405180910390fd5b600560009054906101000a900473ffffffffffffffffffffffffffffffffffffffff1673ffffffffffffffffffffffffffffffffffffffff166102ae610aa8565b73ffffffffffffffffffffffffffffffffffffffff1614610304576040517f08c379a00000000000000000000000000000000000000000000000000000000081526004016102fb90610d71565b60405180910390fd5b600560159054906101000a900460ff1615610354576040517f08c379a000000000000000000000000000000000000000000000000000000000815260040161034b90610ddd565b60405180910390fd5b6001600560156101000a81548160ff0219169083151502179055507f745c90b656b4aafe296c8ca35aeacfe56cb96c90e1d320e5da643fff1051b6c08260405161039e9190610e0c565b60405180910390a160008054906101000a900473ffffffffffffffffffffffffffffffffffffffff1673ffffffffffffffffffffffffffffffffffffffff1663a9059cbb836004546040518363ffffffff1660e01b8152600401610403929190610e27565b6020604051808303816000875af1158015610422573d6000803e3d6000fd5b505050506040513d601f19601f820116820180604052508101906104469190610e7c565b505050565b600160009054906101000a900473ffffffffffffffffffffffffffffffffffffffff1673ffffffffffffffffffffffffffffffffffffffff1661048c610aa8565b73ffffffffffffffffffffffffffffffffffffffff16146104e2576040517f08c379a00000000000000000000000000000000000000000000000000000000081526004016104d990610f1b565b60405180910390fd5b6002829080600181540180825580915050600190039060005260206000200160009091909190916101000a81548173ffffffffffffffffffffffffffffffffffffffff021916908373ffffffffffffffffffffffffffffffffffffffff16021790555080600460008282546105579190610f6a565b925050819055505050565b6000600354905090565b610574610aa8565b61057d816109f9565b6105bc576040517f08c379a00000000000000000000000000000000000000000000000000000000081526004016105b390610c73565b60405180910390fd5b6105c5826109f9565b15610605576040517f08c379a00000000000000000000000000000000000000000000000000000000081526004016105fc90611032565b60405180910390fd5b7f8b1adbd3bf7169485d149afca4209f89513cb267f6964ab3a0a093af705fd148826040516106349190610e0c565b60405180910390a15050565b6000600454905090565b6000600280549050905090565b61065f610aa8565b610668816109f9565b6106a7576040517f08c379a000000000000000000000000000000000000000000000000000000000815260040161069e90610c73565b60405180910390fd5b600560149054906101000a900460ff16156106f7576040517f08c379a00000000000000000000000000000000000000000000000000000000081526004016106ee906110c4565b60405180910390fd5b60005b600660008473ffffffffffffffffffffffffffffffffffffffff1673ffffffffffffffffffffffffffffffffffffffff1681526020019081526020016000208054905081101561084857600660008473ffffffffffffffffffffffffffffffffffffffff1673ffffffffffffffffffffffffffffffffffffffff1681526020019081526020016000208181548110610795576107946110e4565b5b9060005260206000200160009054906101000a900473ffffffffffffffffffffffffffffffffffffffff1673ffffffffffffffffffffffffffffffffffffffff166107de610aa8565b73ffffffffffffffffffffffffffffffffffffffff161415610835576040517f08c379a000000000000000000000000000000000000000000000000000000000815260040161082c90611185565b60405180910390fd5b8080610840906111a5565b9150506106fa565b50600660008373ffffffffffffffffffffffffffffffffffffffff1673ffffffffffffffffffffffffffffffffffffffff168152602001908152602001600020610890610aa8565b9080600181540180825580915050600190039060005260206000200160009091909190916101000a81548173ffffffffffffffffffffffffffffffffffffffff021916908373ffffffffffffffffffffffffffffffffffffffff160217905550600280549050600660008473ffffffffffffffffffffffffffffffffffffffff1673ffffffffffffffffffffffffffffffffffffffff1681526020019081526020016000208054905014156109f55781600560006101000a81548173ffffffffffffffffffffffffffffffffffffffff021916908373ffffffffffffffffffffffffffffffffffffffff1602179055506001600560146101000a81548160ff0219169083151502179055507fc0d325bc40f312e08deb17925a62329f9b09749d007f1cd92d4ab3110208e0ad600560009054906101000a900473ffffffffffffffffffffffffffffffffffffffff166040516109ec9190610e0c565b60405180910390a15b5050565b600080600090505b600280549050811015610a9d5760028181548110610a2257610a216110e4565b5b9060005260206000200160009054906101000a900473ffffffffffffffffffffffffffffffffffffffff1673ffffffffffffffffffffffffffffffffffffffff168373ffffffffffffffffffffffffffffffffffffffff161415610a8a576001915050610aa3565b8080610a95906111a5565b915050610a01565b50600090505b919050565b600033905090565b600080fd5b600073ffffffffffffffffffffffffffffffffffffffff82169050919050565b6000610ae082610ab5565b9050919050565b610af081610ad5565b8114610afb57600080fd5b50565b600081359050610b0d81610ae7565b92915050565b600060208284031215610b2957610b28610ab0565b5b6000610b3784828501610afe565b91505092915050565b6000819050919050565b610b5381610b40565b8114610b5e57600080fd5b50565b600081359050610b7081610b4a565b92915050565b60008060408385031215610b8d57610b8c610ab0565b5b6000610b9b85828601610afe565b9250506020610bac85828601610b61565b9150509250929050565b610bbf81610b40565b82525050565b6000602082019050610bda6000830184610bb6565b92915050565b60008115159050919050565b610bf581610be0565b82525050565b6000602082019050610c106000830184610bec565b92915050565b600082825260208201905092915050565b7f63616c6c6572206d757374206f6e65206f662074686520706172747900000000600082015250565b6000610c5d601c83610c16565b9150610c6882610c27565b602082019050919050565b60006020820190508181036000830152610c8c81610c50565b9050919050565b7f6469737075746520697320696e2077726f6e6720737461746500000000000000600082015250565b6000610cc9601983610c16565b9150610cd482610c93565b602082019050919050565b60006020820190508181036000830152610cf881610cbc565b9050919050565b7f6f6e6c79206a756467652063616e206d616b652074686973206465636973696f60008201527f6e00000000000000000000000000000000000000000000000000000000000000602082015250565b6000610d5b602183610c16565b9150610d6682610cff565b604082019050919050565b60006020820190508181036000830152610d8a81610d4e565b9050919050565b7f74686973206469737075746520697320616c7265616479207265736f6c766564600082015250565b6000610dc7602083610c16565b9150610dd282610d91565b602082019050919050565b60006020820190508181036000830152610df681610dba565b9050919050565b610e0681610ad5565b82525050565b6000602082019050610e216000830184610dfd565b92915050565b6000604082019050610e3c6000830185610dfd565b610e496020830184610bb6565b9392505050565b610e5981610be0565b8114610e6457600080fd5b50565b600081519050610e7681610e50565b92915050565b600060208284031215610e9257610e91610ab0565b5b6000610ea084828501610e67565b91505092915050565b7f6f6e6c79206d616e6167657220636f6e747261637420697320616c6c6f77656460008201527f20746f20696e74657261637420776974682074686973206d6574686f64000000602082015250565b6000610f05603d83610c16565b9150610f1082610ea9565b604082019050919050565b60006020820190508181036000830152610f3481610ef8565b9050919050565b7f4e487b7100000000000000000000000000000000000000000000000000000000600052601160045260246000fd5b6000610f7582610b40565b9150610f8083610b40565b9250827fffffffffffffffffffffffffffffffffffffffffffffffffffffffffffffffff03821115610fb557610fb4610f3b565b5b828201905092915050565b7f6a756467652073686f756c64206e6f74206265207468652073616d652061732060008201527f696e766f6c766564207061727469657300000000000000000000000000000000602082015250565b600061101c603083610c16565b915061102782610fc0565b604082019050919050565b6000602082019050818103600083015261104b8161100f565b9050919050565b7f6a7564676520686173206265656e2061737369676e656420746f20746869732060008201527f6469707574650000000000000000000000000000000000000000000000000000602082015250565b60006110ae602683610c16565b91506110b982611052565b604082019050919050565b600060208201905081810360008301526110dd816110a1565b9050919050565b7f4e487b7100000000000000000000000000000000000000000000000000000000600052603260045260246000fd5b7f7573657220616c726561647920617070726f76656420676976656e206a75646760008201527f6500000000000000000000000000000000000000000000000000000000000000602082015250565b600061116f602183610c16565b915061117a82611113565b604082019050919050565b6000602082019050818103600083015261119e81611162565b9050919050565b60006111b082610b40565b91507fffffffffffffffffffffffffffffffffffffffffffffffffffffffffffffffff8214156111e3576111e2610f3b565b5b60018201905091905056fea2646970667358221220f3d5e5cb8cf228c1550e940fe75372d4aeab2d44d83cc65910c92f3846b41cf164736f6c634300080a0033a26469706673582212205de5f25f6cc3e844ccd4a61df8b69ac2546aaeefc285198f58b72cc382bd3e7e64736f6c634300080a0033",
  "immutableReferences": {},
  "source": "// SPDX-License-Identifier: MIT\npragma solidity 0.8.10;\n\nimport \"./FiDispute.sol\";\nimport \"./FiDiToken.sol\";\nimport \"@openzeppelin/contracts/utils/Context.sol\";\nimport \"@openzeppelin/contracts/token/ERC20/IERC20.sol\";\n\ncontract FiDisputeManager is Context {\n\n    FiDiToken token;\n\n    mapping(bytes32 => address) disputes; \n\n    event NewOpenDispute(address indexed disputeAddress);\n\n    event NewCompleteDispute(\n        address indexed disputeAddress, \n        address initiator,\n        address challenger, \n        address judge\n    );\n\n    event FiDiTokenExchange(address buyer);\n\n    event FiDiTokenRefund(address buyer);\n\n    event FiDisputeAccepted(address dispute, address challenger);\n\n    constructor(FiDiToken _token) {\n        token = _token;\n    }\n\n    receive() payable external {\n        _obtainDisputeTokens();\n    }\n\n    function registerDisputeIntention(bytes32 disputeHash, uint256 stakeTokenAmount) public returns(address) {\n        require(token.balanceOf(_msgSender()) >= stakeTokenAmount, \"not enough tokens\");\n        FiDispute dispute = new FiDispute(address(this) ,token, _msgSender(), disputeHash, stakeTokenAmount);\n        disputes[disputeHash] = address(dispute);\n        token.transferFrom(\n            _msgSender(),\n            address(dispute),\n            dispute.participationStakeValue()\n        );\n        emit NewOpenDispute(address(dispute));\n        return address(dispute);\n    }\n\n    function acceptDispute(address dispute) public {\n        FiDispute disputeInstance = FiDispute(dispute);\n        require(\n            token.balanceOf(_msgSender()) >= disputeInstance.participationStakeValue(),\n            \"no enough token to participate\"\n        );\n        disputeInstance.acceptDispute(_msgSender(), disputeInstance.participationStakeValue());\n        token.transferFrom(\n            _msgSender(),\n            dispute,\n            disputeInstance.participationStakeValue()\n        );\n        emit FiDisputeAccepted(dispute, _msgSender());\n    }\n\n    function refund(uint256 refundAmount) public payable {\n        require(token.balanceOf(_msgSender()) >= refundAmount, \"not enough token\");\n        token.burnFrom(_msgSender(), refundAmount);\n        payable(_msgSender()).transfer(refundAmount);\n        emit FiDiTokenRefund(_msgSender());\n    }\n\n    function getTokenAddress() public view returns(address) {\n        return address(token);\n    }\n\n    function _obtainDisputeTokens() private {\n        token.mint(_msgSender(), msg.value);\n        emit FiDiTokenExchange(_msgSender());\n    }\n\n}",
  "sourcePath": "/Users/kirillkochnev/projects/crypto/fi_dispute/contracts/FiDisputeManager.sol",
  "compiler": {
    "name": "solc",
    "version": "0.8.10+commit.fc410830.Emscripten.clang"
  },
  "schemaVersion": "3.4.3",
  "updatedAt": "2021-11-19T12:13:27.046Z",
  "networkType": "ethereum",
  "devdoc": {
    "kind": "dev",
    "methods": {},
    "version": 1
  },
  "userdoc": {
    "kind": "user",
    "methods": {},
    "version": 1
  }
}